:020000020000FC
:1000000016C0B9C0189518950994B5C092C0189536
:100010009AC01895189506C11895189518951895B1
:100020001895CAC01895697A40744042405B002414
:100030000FBEF4E0EFE5FEBFEDBF0292E036F00543
:1000400009F4EEE1E015F005C1F791B69092600079
:1000500094B604BE80E088BB8EE087BB80E385BB9E
:1000600080E084BB80E082BB8CEB81BB82E083BFFD
:1000700081EC8EBDF5BD88E181BD88E081BD16D1E2
:1000800025D1A2E89E918E9189569A4729F0E6E201
:1000900085918D93A838E1F790FA9F1226F4D7D076
:1000A000DBD0DFD0F1C292FE04C0DBD0D0D000683C
:1000B000EBC291FE02C0DAD0E7C293FE05C0C7D002
:1000C000C6D0CFD0CED0FBCFF0D0492D58E040FFE6
:1000D000C3D040FDCBD0EAD046955A95C1F7F4CFB6
:1000E0009FB68A9409F4ECE79FBE18959FB68A9450
:1000F00009F4EAE89FBE189520FD939A21FD949A91
:1001000022FD959AEAE83F12E6E7832C24BC189575
:10011000A8951895A89511FDEFCFECE75F12E0E7E1
:10012000852C20FD939821FD949822FD959844BC40
:1001300018959FB640916300415008F40E7F40939C
:1001400063009FBE18959FB640916400439540930D
:1001500064004F7019F4BB2019F0BA949FBE189533
:10016000409165004395409365004091660043953A
:1001700040936600F3CF46B557B59EB496FE0DC0CA
:100180009FB65A5659BD48BD41E84EBD48E048BFEC
:100190009FBE18959FB6BB240BC098B693FCFACFB0
:1001A0009FB63A0148B559B55659641A750A106197
:1001B00041EC4EBD9FBE18959FB641B1403051F104
:1001C000403679F0403881F0403A39F0483A29F128
:1001D000483BE1F0483FF1F011F404FF146145ECB5
:1001E0001EC014FF006319C005FF17C004FF04C040
:1001F00073B06F2E0F7E11C063B00F7D0EC0F3B9C8
:100200004AEF10FD4FEF40937E0007C040917E0003
:1002100043B9F8CF46B7406902C046B7406846BF09
:100220009FBE18959FB64CB1453F59F006FF0DC0D3
:1002300030F450917F005A9531F4742E18610F7B81
:1002400004C0006451E050937F009FBE189578EC85
:1002500090E5C29A939A0EC074EB94E6C19A949A70
:1002600009C070EA98E7C39A959A04C07CE89CE8B4
:10027000C19A939A08B215B2A2B208BA15BAA2BA34
:10028000F2BF82B78032E8F362B3677C62BB68B3C7
:10029000617F68BB60E1F2BFA89582B78717E8F37A
:1002A0006A95C9F79A9549F7089500D000D000D013
:1002B0009FE060E1F2BF81E088BFA89588B780FF2A
:1002C000FDCF6A95B9F79A95A1F7089580916000DE
:1002D00081BFC0E8D0E080E890E0A895E199FDCF2B
:1002E00067B760FDFACFC83881F09FBB8EBB01961F
:1002F000E09A6DB317F06993F0CF79917DBBF894D4
:10030000E29A6713E19A7894E8CFD2DF8FEF81BF4A
:100310000895000C111CAA1C8A95D9F70895869F90
:10032000A12C969FA00CC11DDF1F879FA00CC11D93
:10033000DF1F979FC00DD11D089513FD89C012FDC9
:100340007DC01F7EC2E8D0E007FD46C001C0ADDF22
:10035000B301A895FF9FAA24C23831F4603C87E618
:100360007807D0F18FE113C08091820068178091E7
:100370008300780768F7C43811F482E208C08091DE
:100380008400681780918500780710F380E2882E3A
:10039000A89514FFFDCF1F7EC301080E191EAF1EC6
:1003A000861B970B80569F4F8154914080F68A940C
:1003B00079F783E0AEDF1992A99253DFC43841F296
:1003C00077DF4FDFC63821F273DF4BDF7FDF49C0B5
:1003D00013FD3EC012FD32C01F76C0917C00D0914B
:1003E0007D00C3018C1B9D0B60F410689095819576
:1003F0009F4F60917A0070917B0007C0CC27DD276A
:1004000010C0609178007091790080529340B2F3EF
:10041000CAE3D0E084DFC93583E0D80710F0C9E52E
:10042000D3E0C0937600D093770001FF03C082E051
:10043000B82EA5C080E1B816BF1E0895E3011F764F
:10044000CC0FC295209669F3CE016DE373E0E0CF47
:10045000D72D1F76C0E0D03021F3CE0160E074E0EC
:10046000D7CF809186009091870080937C009093F5
:100470007D006091820070918300681B790B14D01D
:100480008093780090937900609186007091870046
:100490008091840090918500681B790B05D0809332
:1004A0007A0090937B0008956052734085E595E053
:1004B0000196A8959F3F890721F0C0EEDCEF2FDF62
:1004C000B9F70895F8948CB59DB56091640078B73C
:1004D0007894903872FD6F1FC0916700D0916800CA
:1004E000A090690080936700909368006093690012
:1004F00000906A0010906B0070916C00C0936A00CD
:10050000D0936B00A0926C0080199109670B80302A
:1005100077E097076F0728F480E097E060E0D694D3
:10052000C7946130A9E5B3E058F06230ADEAB1E0BC
:1005300038F0643018F064E090E080E0A6EDB0E0C0
:100540007D0180936D0090936E0060936F006695BF
:1005500097958795C0916700D0916800A090690039
:1005600073E32DD0C0937000D0937100A0927200FD
:1005700041D014FD2DCFC0917600D0917700CE15DB
:10058000DF0508F0E701CC15DD0508F0E60189E597
:1005900093E08C1B9D0B79F01D7F209671F016FF68
:1005A00004C0880F991FCC0FDD1F1E7FC09580955A
:1005B0001E012C0108951260F8CF1160F7CF879FBC
:1005C000C10DDF1FAF1E979FC00DD11DAF1E679FCE
:1005D000D00DA11C089580916D0090916E006091E6
:1005E0006F00C0917000D0917100A09072000895CA
:1005F000F2DFE5DF79B7072E7B7E79BF70E1F894F3
:10060000DBBDCABD78BF8CB59DB5789401606091A3
:10061000640078B7903872FD6F1FC81BD90BA60A0B
:10062000A09263000AF40E7F09BE0895279670E138
:10063000F8948CB59DB5C80FD91FDBBDCABD78BF76
:10064000A092630001607894089514FDC1DE00FD5E
:10065000FCCF0895F5BD80E488BFE8E888B3817FCA
:1006600088BB82B3877C82BB0895B09BF093650002
:100670008091650085FF0895F894F7BBF4BBF1BB4A
:1006800088E181BDF1BDBCCA9798EBDE84E588BFE7
:1006900089BF80E080BD89E189B980E18AB986E8B7
:1006A00080BD8CB18CB18CB15F9A579A006382E5A2
:1006B00082B985EC86BF81EC8EBD89B7806289BF27
:1006C0007894BB24137EF0936500F0936600A895A0
:1006D00014FD02C0CADFFBCF30DEC0917600D0919E
:1006E0007700209671F78AE0B81688F312FFF6BFFC
:1006F00013FFFAB9812F8C7019F089B78F7D89BFEC
:10070000B5DDB4DDB3DDA6DF0D7FF0936500F093BA
:100710006600A89514FD0DC0BB20D9F7A6DF809117
:1007200066008837B1F78CE38093660093DF99DD2C
:10073000F0CF4EDE209649F3BB2039F38BDF80B734
:10074000886080BF37989298CFE8D0E06E01026051
:10075000A9D082E0B82E86E0809362008CE080937E
:10076000610081E085BD17FD3AC0A2D081E087B964
:10077000C29810FFC39A9AD082E087B9F894287F74
:1007800010FF226082B3959892B38913949A78945B
:100790008FD080E087B9C39810FFC19A87D081E0DD
:1007A00087B9F894287F10FF216082B3949892B3A0
:1007B0008913939A78947CD082E087B9C19810FF0E
:1007C000C29A74D080E087B9F894287F10FF246023
:1007D00082B3939892B38913959A789439C066D06E
:1007E00082E087B9F894287F10FF216082B3959842
:1007F00092B38913939A78945BD081E087B9C298B9
:1008000010FFC19A53D080E087B9F894287F10FF79
:10081000226082B3939892B38913949A789448D0C3
:1008200082E087B9C19810FFC39A40D081E087B9B0
:10083000F894287F10FF246082B3949892B38913B0
:10084000959A789435D080E087B9C39810FFC29A02
:1008500080916100803010FDF1F0E6012096E1F01A
:10086000809161008C3038F48395809361006296AA
:1008700086ED90E004C01F7B6B9689E593E0C81776
:10088000D90710F06C016FCF6E016DCFE3DE10DD84
:10089000E8DCE2DC0DDD37CF51CFE8E882B3877CBE
:1008A00082BB5EC0F093610010645AC01F7D01C01E
:1008B000106280916200815050F08093620016FFB8
:1008C00029C0C0E0DFEFAF2EB1DEA4E03BC0E838C6
:1008D00009F4EAE816FF1EC0C0917300D0917400BD
:1008E000A090750072B77F71D71BAF0A30F0C0308F
:1008F0007AECD70778E0A70620F4C0E0D8EB7BE0DD
:10090000A72EC0937300D0937400A09275008EDE62
:10091000AFEF18C07BE16CDE98DE79E569DE00FFA1
:10092000BCCF14FD55DD68B1612765FDF8CF53DEFE
:10093000A92F6F13AFEFC80FD91FA61EC80FD91F5D
:10094000A61E58DEBA2F00FFADCF14FD41DD68B101
:10095000612765FD03C0AB17AF1FF5CFAA9599F7C7
:10096000B1DD16FF72DE809162008F131160BF123D
:0809700008958F918F918ACF49
:101C0000E4E0FFE5FEBFEDBF00E0ECEBFEE0C0E886
:101C1000D0E0A0E6B0E042E045BD5CEE539571F047
:101C200040EC04BD48BFA03619F0E8B6E6FC46C05B
:101C3000B099F9CF04BD48BFE8B6E6FCE1C1B09B5E
:101C4000FBCF04BD48BFE8B6E6FCE8CFB099FBCFB8
:101C500034B404BD48BFE8B6E6FCD2C1B09BFBCFAC
:101C600024B4022C030C802C07940694402C069478
:101C70008008809420943094409460EE83E084BC8B
:101C800048BFE8B6E6FCBCC1B09BFBCF84BC48BFF4
:101C9000E8B6E6FCC3CFB099FBCF0894E8B6E6FC03
:101CA00023C0B09BFBCFE8B6E6FCB8CFB099FBCF22
:101CB0008894E8B6E6FC18C0B09BFBCF43BC87E134
:101CC000C09AB89A34BC48BFE8B6E6FEFDCFC098CB
:101CD00024BC48BFE8B6E6FEFDCF8A9589F7C0E68A
:101CE000D0E060E081E00BC0679548F6815068F570
:101CF0005CEE0994CA17DB07D1F0699188E066951C
:101D0000C09A34BC48BFE8B610F0E7FC08BBE6FE5A
:101D1000FACFC09808F0C09A24BC48BFE8B610F0CB
:101D2000E7FC08BBE6FEFACF8A9549F7E3CFC09AF5
:101D300034BC48BFC0E8D0E0A0E6B0E0E8B6E7FEBB
:101D4000FDCFB89808BB6ACF80E060E898CFECEB95
:101D5000FEE0C0E8D0E0F8CF009000000090000066
:101D60000090000000900000009000000090000033
:101D70000090000000900000000000006B3121F78F
:101D8000562E3796E1CF962E56263496DDCF762EF8
:101D900056263496D9CF662E56263496D5CF6E3039
:101DA000B1F656263596D0CF69935626CF3584E0C6
:101DB000D80768F681E0681A700A09F43C96C4CF27
:101DC0006511C5CFC0E8D0E0699199918991FD0175
:101DD0007BE170839182028372E073837EE074837F
:101DE0006583068317966130A1F48BE0838388E0D6
:101DF0008D93EF01ECEDFFE185918D93E43EE1F7EA
:101E0000FE01819161918627EA17FB07D9F78D932F
:101E10009ECF6D3151F5792F90E0039683839283A5
:101E200003970D938A95E9F789916991603380074B
:101E300094E0790779F460878991803059F4699149
:101E400060308EE131F0613083E919F0623087E073
:101E500009F482870D93D5CF8017900709F5D990A3
:101E6000C9905601AA0CBB1CCCCF6330E1F06230A4
:101E700041F2603131F2613121F2663069F3623151
:101E8000F1F1833F73E0970758F4643109F166314B
:101E900069F127966531C1F16331F9F10000000065
:101EA00080EC8683AECF90398FE071F0913982E07B
:101EB00059F092398AE041F0943982E329F0903860
:101EC00080E011F0913861F78D9383E0838399CF9F
:101ED00049D0EF01F5018FD076FDFDCF65916D936F
:101EE0000197E1F75F01FE010D938BCF3BD011E02D
:101EF0003ED06DB36D930197D9F70D9382CFCC246B
:101F0000DD2480E092E0689416E06FEF0EF06991B6
:101F10002ED00197D1F7E89474CF8F7F61E07F01D5
:101F2000F5010990199068D032960297D1F70F0108
:101F3000F501500163E0E03C7FE1F70719F058D06C
:101F4000F7015FCF0BD065E009D061E107D0F8CF92
:101F500077B770FDFDCFE199FECF0895F9DF67BF38
:101F6000E8950895039692838383039708953AD062
:101F7000DFBACEBA0894C01ED01E762FE09A6DB399
:0E1F8000671312FF08957DBBE29A1CBB089503
:101FC000687474703A2F2F6769746875622E636F36
:101FD0006D2F73696D2D2F7467792F00415652490B
:101FE00053505F3277B770FDFDCFE199FECF089572
:101FF00003D065E001D061E1F5DF67BFE8950895A2
:00000001FF
