:020000020000FC
:1000000016C0B9C0189518950994B5C092C0189536
:100010009AC018951895CFC01895189518951895E9
:100020001895C9C01895697A40744042405B002415
:100030000FBEF4E0EFE5FEBFEDBF0292E036F00543
:1000400009F4EEE1E015F005C1F791B69092600079
:1000500094B604BE80E088BB80E087BB80E085BBAF
:1000600080E084BB80E082BB8BEB81BB82E083BFFE
:1000700081E08EBDF5BD88E181BD88E081BDCAD03B
:10008000D9D0A2E89E918E9189569A4729F0E6E24E
:1000900085918D93A838E1F790FA9F1226F48BD0C2
:1000A0008FD093D084C292FE04C08FD084D00068D9
:1000B0007EC291FE02C08ED07AC293FE05C07BD074
:1000C0007AD083D082D0FBCFA4D0492D58E040FF16
:1000D00077D040FD7FD09ED046955A95C1F7F4CF9A
:1000E0009FB68A9409F4ECE79FBE18959FB68A9450
:1000F00009F4EAE89FBE189520FD909A21FD919A97
:1001000022FD939AEAE83F12E6E7832C24BC189577
:10011000A8951895A89511FDEFCFECE75F12E0E7E1
:10012000852C20FD909821FD919822FD939844BC48
:1001300018959FB640916300415008F40E7F40939C
:1001400063009FBE18959FB640916400439540930D
:1001500064004F7019F4BB2019F0BA949FBE189533
:10016000409165004395409365004091660043953A
:1001700040936600F3CF4CB55DB5829B0DC09FB632
:100180005A5659BD48BD42E045BF48E048BF9FBEF2
:1001900018959FB6BB240BC098B693FCFACF9FB6B8
:1001A0003A0148B559B55659641A750A106143E0C9
:1001B00045BF9FBE189578EC90E5979A909A0EC02F
:1001C00074EB94E6949A919A09C070EA98E7959A2C
:1001D000939A04C07CE89CE8949A909A08B215B26D
:1001E000A2B208BA15BAA2BAF2BF82B78032E8F357
:1001F00062B3647F62BB62B36F7462BB60E1F2BFE3
:10020000A89582B78717E8F36A95C9F79A9549F7D1
:10021000089500D000D000D09FE060E1F2BF81E0FF
:1002200088BFA89588B780FFFDCF6A95B9F79A95E2
:10023000A1F708958091600081BFC0E8D0E080E818
:1002400090E0A895E199FDCF67B760FDFACFC83877
:1002500081F09FBB8EBB0196E09A6DB317F0699356
:10026000F0CF79917DBBF894E29A6713E19A789484
:10027000E8CFD2DF8FEF81BF0895000C111CAA1CBC
:100280008A95D9F70895869FA12C969FA00CC11D31
:10029000DF1F879FA00CC11DDF1F979FC00DD11DC1
:1002A00008951F7EC2E8D0E007FD42C001C0B1DF63
:1002B000B301A895FF9FAA24C23831F4603C87E6B9
:1002C0007807B0F18FE113C08091820068178091A8
:1002D0008300780768F7C43811F482E208C080917F
:1002E0008400681780918500780710F380E2882EDB
:1002F000A89514FFFDCF1F7EC301080E191EAF1E67
:10030000861B970B80569F4F8154914080F68A94AC
:1003100079F783E0B2DF1992A99257DFC43841F22E
:100320007BDF53DFC63821F277DF4FDF83DF32C058
:100330001F76C0917C00D0917D00C3018C1B9D0B6A
:1003400060F41068909581959F4F60917A0070914C
:100350007B0007C0CC27DD2710C06091780070912A
:10036000790080529340B2F3C1E9D0E08CDFC0360F
:1003700088E0D80710F0C0E6D8E0C0937600D093AC
:10038000770001FF03C082E0B82E92C080E1B8166A
:10039000BF1E0895809186009091870080937C0015
:1003A00090937D006091820070918300681B790BAF
:1003B00014D08093780090937900609186007091BA
:1003C00087008091840090918500681B790B05D08F
:1003D00080937A0090937B0008956052734085E586
:1003E0009DE00196A8959F3F890721F0C0E3D8EFD3
:1003F0004ADFB9F70895F8948CB59DB56091640013
:1004000078B77894903872FD6F1FC0916700D091D3
:100410006800A090690080936700909368006093E3
:10042000690000906A0010906B0070916C00C0939E
:100430006A00D0936B00A0926C0080199109670B41
:10044000803077E097076F0728F480E097E060E05E
:10045000D694C7946130A0E6B8E058F06230A0E3CB
:10046000B4E038F0643018F064E090E080E0A8E197
:10047000B2E07D0180936D0090936E0060936F00F9
:10048000669597958795C0916700D0916800A09078
:10049000690073E327D0C0937000D0937100A092DD
:1004A00072003BD014FD44CFC0917600D09177000C
:1004B000CE15DF0508F0E701CC15DD0508F0E601F3
:1004C00080E698E08C1B9D0B49F01D7F209641F043
:1004D0001E7FC09580951E012C0108951260F8CFF3
:1004E0001160F7CF879FC10DDF1FAF1E979FC00D13
:1004F000D11DAF1E679FD00DA11C089580916D0086
:1005000090916E0060916F00C0917000D091710069
:10051000A09072000895F2DFE5DF79B7072E7B7EA9
:1005200079BF70E1F894DBBDCABD78BF8CB59DB5CD
:10053000789401606091640078B7903872FD6F1F05
:10054000C81BD90BA60AA09263000AF40E7F09BE4D
:100550000895279670E1F8948CB59DB5C80FD91F02
:10056000DBBDCABD78BFA092630001607894089596
:1005700014FDDEDE00FDFCCF0895F5BD80E488BFEC
:10058000E8E882B38F7482BB82B3847F82BB089514
:10059000829BF09365008091650085FF0895F89433
:1005A000F7BBF4BBF1BB88E181BDF1BD29CBF2DE25
:1005B00084E588BF89BF83E085BF80E48BBF7894E2
:1005C000BB24137EF0936500F0936600A89514FD9C
:1005D00002C0DEDFFBCF65DEC0917600D0917700F0
:1005E000209671F78AE0B81688F3812F8C7009F095
:1005F000FBBFF0DDEFDDEEDDC0DF0D7FF0936500CA
:10060000F0936600A89514FD0DC0BB20D9F7C0DF9C
:10061000809166008837B1F78CE380936600ADDF88
:10062000D4DDF0CF85DE209649F3BB2039F3A5DF7A
:1006300080B7886080BF3798C5E6D1E06E01026060
:10064000AAD082E0B82E86E0809362008CE080938E
:10065000610081E085BD17FD3AC0A3D083E087B972
:10066000979810FF959A9BD084E087B9F894287FDB
:1006700010FF226082B3939892B38913919A789471
:1006800090D082E087B9959810FF949A88D083E043
:1006900087B9F894287F10FF216082B3919892B3B4
:1006A0008913909A78947DD084E087B9949810FF4C
:1006B000979A75D082E087B9F894287F10FF24605C
:1006C00082B3909892B38913939A789439C067D083
:1006D00084E087B9F894287F10FF216082B3939853
:1006E00092B38913909A78945CD083E087B99798F5
:1006F00010FF949A54D082E087B9F894287F10FFB5
:10070000226082B3909892B38913919A789449D0D9
:1007100084E087B9949810FF959A41D083E087B917
:10072000F894287F10FF246082B3919892B38913C4
:10073000939A789436D082E087B9959810FF979A6B
:1007400080916100803010FDF9F0E6012096E9F01B
:10075000809161008C3038F4839580936100AD9670
:1007600088E192E005C01F7BCC5BDF4F80E698E01C
:10077000C817D90710F06C016ECF6E016CCFFDDE8B
:100780004BDD23DD1DDD48DD37CF51CFE8E882B3F7
:10079000847F82BB5EC0F093610010645AC01F7DED
:1007A00001C0106280916200815050F0809362001D
:1007B00016FF29C0C0E0DFEFAF2ECBDEA4E03BC0C8
:1007C000E83809F4EAE816FF1EC0C0917300D09122
:1007D0007400A090750072B77F71D71BAF0A30F01C
:1007E000C0307AECD70778E0A70620F4C0E0D8EB59
:1007F0007BE0A72EC0937300D0937400A092750085
:10080000A8DEAFEF18C07BE186DEB2DE79E583DEDD
:1008100000FFBCCF14FD8CDD68B1612765FDF8CF0A
:100820006DDEA92F6F13AFEFC80FD91FA61EC80F1B
:10083000D91FA61E72DEBA2F00FFADCF14FD78DDE2
:1008400068B1612765FD03C0AB17AF1FF5CFAA954F
:1008500099F7D1DD16FF8CDE809162008F13116055
:0A086000BF1208958F918F918ACF87
:101C0000E4E0FFE5FEBFEDBF00E0ECEBFEE0C0E886
:101C1000D0E0A0E6B0E042E045BD5CEE539571F047
:101C200040EC04BD48BFA03619F0E8B6E6FC46C05B
:101C30008299F9CF04BD48BFE8B6E6FCE1C1829BBA
:101C4000FBCF04BD48BFE8B6E6FCE8CF8299FBCFE6
:101C500034B404BD48BFE8B6E6FCD2C1829BFBCFDA
:101C600024B4022C030C802C07940694402C069478
:101C70008008809420943094409460EE83E084BC8B
:101C800048BFE8B6E6FCBCC1829BFBCF84BC48BF22
:101C9000E8B6E6FCC3CF8299FBCF0894E8B6E6FC31
:101CA00023C0829BFBCFE8B6E6FCB8CF8299FBCF7E
:101CB0008894E8B6E6FC18C0829BFBCF43BC87E162
:101CC000929A8A9A34BC48BFE8B6E6FEFDCF929855
:101CD00024BC48BFE8B6E6FEFDCF8A9589F7C0E68A
:101CE000D0E060E081E00BC0679548F6815068F570
:101CF0005CEE0994CA17DB07D1F0699188E066951C
:101D0000929A34BC48BFE8B610F0E7FC02BBE6FE8E
:101D1000FACF929808F0929A24BC48BFE8B610F027
:101D2000E7FC02BBE6FEFACF8A9549F7E3CF929A29
:101D300034BC48BFC0E8D0E0A0E6B0E0E8B6E7FEBB
:101D4000FDCF8A9802BB6ACF80E060E898CFECEBC9
:101D5000FEE0C0E8D0E0F8CF009000000090000066
:101D60000090000000900000009000000090000033
:101D70000090000000900000000000006B3121F78F
:101D8000562E3796E1CF962E56263496DDCF762EF8
:101D900056263496D9CF662E56263496D5CF6E3039
:101DA000B1F656263596D0CF69935626CF3584E0C6
:101DB000D80768F681E0681A700A09F43C96C4CF27
:101DC0006511C5CFC0E8D0E0699199918991FD0175
:101DD0007BE170839182028372E073837EE074837F
:101DE0006583068317966130A1F48BE0838388E0D6
:101DF0008D93EF01ECEDFFE185918D93E43EE1F7EA
:101E0000FE01819161918627EA17FB07D9F78D932F
:101E10009ECF6D3151F5792F90E0039683839283A5
:101E200003970D938A95E9F789916991603380074B
:101E300094E0790779F460878991803059F4699149
:101E400060308EE131F0613083E919F0623087E073
:101E500009F482870D93D5CF8017900709F5D990A3
:101E6000C9905601AA0CBB1CCCCF6330E1F06230A4
:101E700041F2603131F2613121F2663069F3623151
:101E8000F1F1833F73E0970758F4643109F166314B
:101E900069F127966531C1F16331F9F10000000065
:101EA00080EC8683AECF90398FE071F0913982E07B
:101EB00059F092398AE041F0943982E329F0903860
:101EC00080E011F0913861F78D9383E0838399CF9F
:101ED00049D0EF01F5018FD076FDFDCF65916D936F
:101EE0000197E1F75F01FE010D938BCF3BD011E02D
:101EF0003ED06DB36D930197D9F70D9382CFCC246B
:101F0000DD2480E092E0689416E06FEF0EF06991B6
:101F10002ED00197D1F7E89474CF8F7F61E07F01D5
:101F2000F5010990199068D032960297D1F70F0108
:101F3000F501500163E0E03C7FE1F70719F058D06C
:101F4000F7015FCF0BD065E009D061E107D0F8CF92
:101F500077B770FDFDCFE199FECF0895F9DF67BF38
:101F6000E8950895039692838383039708953AD062
:101F7000DFBACEBA0894C01ED01E762FE09A6DB399
:0E1F8000671312FF08957DBBE29A1CBB089503
:101FC000687474703A2F2F6769746875622E636F36
:101FD0006D2F73696D2D2F7467792F00415652490B
:101FE00053505F3277B770FDFDCFE199FECF089572
:101FF00003D065E001D061E1F5DF67BFE8950895A2
:00000001FF
